:020000040800F2
:10000000E0460020550200080919000829180008D8
:10001000051900084D040008051E00080000000036
:10002000000000000000000000000000811900082E
:10003000510400080000000011190008A51900086B
:100040006F0200086F0200086F0200086F020008CC
:100050006F0200086F0200086F0200086F020008BC
:100060006F0200086F0200086F0200086F020008AC
:100070006F0200086F0200086F0200086F0200089C
:100080006F0200086F0200086F0200086F0200088C
:100090006F0200086F0200086F0200086F0200087C
:1000A0006F0200086F0200086F0200086F0200086C
:1000B0006F0200086F0200086F0200086F0200085C
:1000C0006F0200086F0200086F0200086F0200084C
:1000D0006F0200086F020008E11D00086F020008AF
:1000E0006F0200086F0200086F0200086F0200082C
:1000F0006F0200086F0200086F0200086F0200081C
:100100006F0200086F0200086F0200086F0200080B
:100110006F0200086F020008911A00086F020008C1
:100120006F0200086F0200086F0200086F020008EB
:100130006F0200086F0200086F0200086F020008DB
:100140006F0200086F0200086F0200086F020008CB
:100150006F0200086F0200086F0200086F020008BB
:100160006F0200086F0200086F0200086F020008AB
:100170006F0200086F0200086F0200080000000014
:100180006F0200086F02000800F002F800F052F859
:1001900014A696E8000CB244B344DA4501D100F04D
:1001A00049F8BAE80F000FA696E83000A5EB040561
:1001B00004EB0607AAEB0704A7F101074FEA1515A0
:1001C0004FEA3414A4F10104AC4201D300F032F838
:1001D00013F0010F18BFFB1A43F0010300F001F800
:1001E000DBE71847042C0000242C0000103A24BF41
:1001F00078C878C1FAD8520724BF30C830C144BF8C
:1002000004680C6070470000704700000023002461
:1002100000250026103A28BF78C1FBD8520728BF16
:1002200030C148BF0B6070471FB502F0BCFD1FBD59
:1002300010B510BD00F0D0F81146FFF7F5FF01F042
:1002400087FE00F0EEF803B4FFF7F2FF03BC00F006
:10025000F5F800000948804709480047FEE7FEE737
:10026000FEE7FEE7FEE7FEE7FEE7FEE7FEE7FEE766
:1002700004480549054A064B704700007D1A0008EE
:1002800089010008E0400020E0460020E042002014
:10029000E042002053EA020C00F069802DE9F04BA7
:1002A0004FF00006002B1FBFB3FA83F503FA05F4E5
:1002B00024FA05F65E4012BF1643B2FA82F502FA3E
:1002C00005F4C5F120051EBF22FA05FC44EA0C0422
:1002D000203556EA044C4FEA144418BF641C4FF012
:1002E00000084FF00009904271EB030C39D300294C
:1002F00019BFB1FA81F701FA07F6B0FA80F700FAF0
:1003000007F6C7F120071EBF20FA07FC46EA0C06D5
:100310002037B6FBF4FCA7EB0507103F07F01F0BD7
:10032000CBF120062CFA06F60CFA0BFB44BFB346C1
:100330000026202FA4BF5E464FF0000B5BEA060CA0
:1003400008BF4FF0010B19EB0B0948EB0608ABFB9C
:10035000027C06FB02CC0BFB03CCC01B71EB0C0137
:10036000C1E70B46024641464846BDE8F08B13B54F
:10037000084318BF4FF0FF300146AFF30080BDE8DF
:100380001C4070474FF0000200B513469446964655
:10039000203922BFA0E80C50A0E80C50B1F1200198
:1003A000BFF4F7AF090728BFA0E80C5048BF0CC046
:1003B0005DF804EB890028BF40F8042B08BF7047A4
:1003C00048BF20F8022B11F0804F18BF00F8012B16
:1003D0007047704770477047754600F02BF8AE467F
:1003E00005006946534620F00700854618B020B541
:1003F000FFF73EFFBDE820404FF000064FF000073A
:100400004FF000084FF0000BAC46ACE8C009ACE878
:10041000C009ACE8C009ACE8C00921F007018D466D
:10042000704710B50446AFF300802046BDE8104089
:10043000FFF709BF0048704710000020014918204D
:10044000ABBEFEE72600020070470000FEE700009A
:100450007047000072B600BFFEE7000070B5866D01
:10046000044600F025F994F83510022928D10546F4
:100470002068216C026822F016020260426922F0B4
:100480008002426109B9A16C19B1016821F008012B
:100490000160016821F00101016000BF206800686F
:1004A000C00715D000F004F9401B0628F6D3202021
:1004B0006065032084F83500002184F8341070BD95
:1004C000802060650120002184F8341070BD00BFD9
:1004D000E06D3F2101FA00F0B060012084F83500A2
:1004E0000020002184F8341070BD000090F8351011
:1004F000022909D1052180F835100068016821F032
:100500000101016000207047802141650120704792
:100510002DE9F04F83B000F1200200F13E4741F693
:100520000045009207F1FF77C4F2020508224FEA66
:10053000B726A84208BF072200254FF000084FF059
:100540000009072E38BF4FEAB72201920AE000BF28
:1005500009F1010908F10208B9F1100F05F10405CC
:1005600000F0A2800F68012202FA09FE17EA0E0AC3
:10057000EED0D1F804C003220CF003077E1E02FA6D
:1005800008F4012E6FEA040B12D88468CE6804EADE
:100590000B0406FA08F634438460446824EA0E0625
:1005A000CCF3001404FA09F42643466004E000BFCB
:1005B000032F01D103271EE0C6688C6806EA0B06EC
:1005C00004FA08F42643022FC66014D16FF0030228
:1005D000009E02EA590756F807C005F01C040F22D6
:1005E0000B69A2402CEA0202A3401A43F251D1F84F
:1005F00004C00CF00307026807FA08F302EA0B02D2
:100600001A431CF4403F0260A2D0002243F6440388
:100610000292C4F202031A6843F6004442F4804294
:100620001A601A68C4F2010402F480420292029A2B
:1006300029F003024FF6084C2244CFF6FF7C52F813
:100640000C3005F00C070F26BE40B343019E06FA9E
:1006500007F73B4342F80C30A2684B6842EA0A07AE
:1006600043F60C4CDE0258BF22EA0A07A760C4F228
:10067000010CDCF800209E0242EA0A0758BF22EA79
:100680000A07CCF8007062689E0342EA0A0758BF66
:1006900022EA0A0767602268DB0342EA0A0758BFBA
:1006A00022EA0A07276053E703B0BDE8F08F000095
:1006B00043F68860C2F200000068704740F2000014
:1006C00043F68861C2F20000C2F2000100780A68B5
:1006D000104408607047000080B543F60040C4F243
:1006E0000200016841F400710160016841F4806119
:1006F0000160016841F480710160032000F0C2F8DC
:100700000F2000F005F800F05DF8002080BD00002B
:1007100070B586B0002543F640010195C4F2020190
:100720000A68044642F010020A60096801A801F054
:10073000100101910199694600F066F9049E002EAE
:1007400018BF012600F080F94DF68361B040C4F275
:100750001B31A0FB01014FF0FF3000EB914140F253
:100760006C1041F20002C2F20000C4F2000240F23A
:10077000E733C0E90021C0E902530561856100F05B
:100780009BFB08B106B070BD40F26C10C2F20000D5
:1007900000F0C2FB0028F5D1362000F035F80F2C10
:1007A0000CD836202146002200F040F840F2040127
:1007B0000020C2F200010C6006B070BD012006B03E
:1007C00070BD000082B0002043F640010190C4F2E9
:1007D00002014A6842F480424A604A6802F4804258
:1007E0000192019A00900868002240F08050086051
:1007F00008680F2100F08050009000986FF0010011
:1008000002B000F013B80000002848BF704700F0A5
:100810001F01012202FA01F11C2202EAD0004EF26D
:100820000012CEF2000281507047000010B54EF663
:100830000C5CCEF2000CDCF80030C3F3022E8EF01C
:100840000704042C28BF0424BEF103034FF0FF3E2D
:100850000EFA04F438BF0023A14399400EFA03F3C3
:100860009A43114300F00F0200F160430901043A7A
:1008700003F564436244002848BF02F10C03197079
:1008800010BD00004EF60C51CEF200010A684FF682
:10089000FF031A4060F30A2242F0806040F0FD70CE
:1008A00008607047002804BF012070472DE9F0411F
:1008B00043F60808C4F202080446D8F8F8030D46C7
:1008C00000F00700884207D288F8F853D8F8F803F8
:1008D00000F00700A84277D12068810717D54107AB
:1008E00005D5D8F8001041F4E051C8F80010010710
:1008F00005D5D8F8001041F46041C8F80010D8F8C8
:100900000010A26821F0F0011143C8F80010C007E0
:1009100040D1D8F8F80300F00700A84207D988F8BA
:10092000F853D8F8F80300F00700A8424CD120682B
:10093000410707D5D8F80010E26821F4E0511143CF
:10094000C8F80010000708D5D8F80000216920F485
:10095000604040EAC100C8F8000000F09DF8D8F8F7
:10096000001042F6C052C1F30311C0F60002515C00
:1009700040F2080220FA01F140F20400C2F2000045
:100980000068C2F200021160FFF7C2FE0020BDE85D
:10099000F08100BF6068811E022907D258F8081C48
:1009A00089015CBF0120BDE8F08111E0012807D179
:1009B00058F8081C89035CBF0120BDE8F08107E0FE
:1009C00058F8081C890703D40120BDE8F08100BF56
:1009D000D8F8001021F003010843C8F80000FFF721
:1009E00067FE064641F28837D8F80000616800F0DB
:1009F0000C00B0EB810F8CD0FFF75AFE801BB84281
:100A0000F2D90320BDE8F0810F22026043F608020C
:100A1000C4F20202136803F003034360136803F097
:100A2000F0038360136803F4E053C360D2F800C09E
:100A30004FF4E05303EADC030361D2F8F80300F05B
:100A4000070008607047000040F2080043F6080104
:100A5000C2F20000C4F202010068096842F6D052F6
:100A6000C1F38221C0F60002515CC840704700000B
:100A700040F2080043F60801C2F20000C4F202018D
:100A80000068096842F6D052C1F34231C0F6000254
:100A9000515CC8407047000010B543F60404C4F22E
:100AA0000204606800F00C0142F200400829C0F224
:100AB000F40007D0042918BF10BD41F20020C0F295
:100AC0007A0010BD216801F03F02216823684902C5
:100AD000C3F3881106D4A1FB00010023FFF7DAFB62
:100AE00007E000BF41F20020C0F27A004843B0FBAB
:100AF000F2F021680222C1F3014102EB4101B0FB97
:100B0000F1F010BD002804BF012070472DE9F0412D
:100B100082B00446007843F60006C007C4F202061D
:100B20000CD0B06800F00C00042840F081803068E0
:100B3000800303D56068002800F068812078800772
:100B40001BD5B06810F00C0F09D0B06800F00C0095
:100B5000082840F087807068400200F18380306888
:100B6000800703D5E068012840F050813068216992
:100B700020F0F80040EAC10030602078000713D46C
:100B8000207840072AD4A569002D00F03A81B0688A
:100B900000F00C00082840F0A580012D40F00E81E7
:100BA000012002B0BDE8F0816069002800F0828079
:100BB0000020C4F247200121C0F8801EFFF778FD15
:100BC000054600BF706F8007DAD4FFF771FD401B48
:100BD0000228F7D9032002B0BDE8F081306C5FEA4B
:100BE000C0080AD400200190306C40F0805030647E
:100BF000306C00F080500190019847F20007C4F279
:100C000000073868C00547D4386840F48070386001
:100C1000FFF74EFD054600BF3868C0053CD4FFF71E
:100C200047FD401B0228F7D9032002B0BDE8F08140
:100C3000B06800F00C00082803D1706840023FF54E
:100C400076AF61683068B1F5803F07D0B1F5A02F6D
:100C500040F09A8040F480203060306840F480306A
:100C600030609AE0E068002840F20000C4F24720BB
:100C70005CD001210160FFF71BFD0546306880074D
:100C80003FF574AFFFF714FD401B0228F6D903208F
:100C900002B0BDE8F08100BFA168306F012905D026
:100CA000052955D140F004003067306F40F0010055
:100CB000306756E00020C4F247200021C0F8801EB3
:100CC000FFF7F6FC054600BF706F80077FF558AF51
:100CD000FFF7EEFC401B0228F6D9032002B0BDE866
:100CE000F08100BF0027C4F2472700203866FFF7D5
:100CF000DFFC022D05460DD13068800140F18A806D
:100D0000FFF7D6FC401B02284FF00300F4D902B0D5
:100D1000BDE8F0813068800173D5FFF7C9FC401B46
:100D200002284FF00300F5D9F1E700BF0021016070
:100D3000FFF7BEFC054600BF306880077FF51DAF9A
:100D4000FFF7B6FC401B02284FF00300F4D9DEE7A2
:100D500020F001003067306F002920F00400306778
:100D60007AD0FFF7A5FC054641F28837306F80073F
:100D700000F18480FFF79CFC401BB842F6D90320A9
:100D800002B0BDE8F08100BF20F4803030603068F0
:100D9000002920F4802030607AD0FFF789FC0546D6
:100DA000306880033FF5CAAEFFF782FC401B642821
:100DB000F6D9032002B0BDE8F08100BF7068E16998
:100DC00000F480028A4221D1216A00F03F028A4267
:100DD0001CD147F6C071626A0140B1EB821F15D188
:100DE000A16A4FF6FF73C903994300F44032A1F59D
:100DF00080318A420AD1E16A00F07060B0EB016F85
:100E000004D1002002B0BDE8F08100BF012002B093
:100E1000BDE8F08104F11C052FCD084340EA8210A3
:100E2000D9034FF6FF729143A1F5803140EA056086
:100E30000843706001203866FFF73AFC044600BFA3
:100E400030688001DDD4FFF733FC001B02284FF02F
:100E50000300F5D95BE700BFFFF72AFC054641F226
:100E6000883700BF306F800708D5FFF721FC401B93
:100E7000B8424FF00300F5D949E700BFB8F1000FC1
:100E80003FF581AE306C20F0805030647BE600BFCF
:100E9000FFF70EFC054600BF306880037FF54EAEBD
:100EA000FFF706FC401B64284FF00300F4D92EE73F
:100EB0007047000070470000002804BF0120704701
:100EC00010B5044690F83D0028B9002084F83C0095
:100ED000204600F01FF8022084F83D002068211D04
:100EE00000F0DCFD012084F8460084F83E0084F820
:100EF0003F0084F8400084F8410084F8420084F800
:100F0000430084F8440084F8450084F83D00002044
:100F100010BD00007047000090F83D1001291CBF73
:100F200001207047022180F83D10006841F2FF72F5
:100F3000C168C4F20002904241F00101C1600DDCC1
:100F400040F2FF71C4F20001884215DCB0F1804F1D
:100F50002AD040F20041C4F2000123E040F2FF3108
:100F6000C4F20101884213DC41F60001C4F2000121
:100F7000884219D0002113E040F60001C4F20001BC
:100F8000884211D040F60041C4F200010AE000BFDF
:100F900044F20001C4F20101884205D040F2004150
:100FA000C4F20101884206D1816801F007010629D7
:100FB00004BF00207047016841F00101016000207A
:100FC000704700007047000070B504460068C568AF
:100FD0000669B10716D515F0020113D06FF00201B2
:100FE0000161012121778069800703D02046FFF746
:100FF000E9FF05E0204600F08FF8204600F08EF86B
:1010000000202077700719D515F0040016D020684D
:101010006FF00401016102212177806910F4407FA3
:1010200004D02046FFF7CEFF06E000BF204600F0C8
:1010300073F8204600F072F800202077300717D5AB
:1010400015F0080014D020686FF008010161042138
:101050002177C069800703D02046FFF7B3FF05E082
:10106000204600F059F8204600F058F8002020777C
:10107000F00619D515F0100016D020686FF0100199
:10108000016108212177C06910F4407F04D0204617
:10109000FFF798FF06E000BF204600F03DF820462D
:1010A00000F03CF800202077F00718BF15F0010091
:1010B00002D1300609D412E020686FF0010101610D
:1010C000204600F02DF8300609D515F0800006D036
:1010D00020686FF0800101612046FFF7E9FE70068D
:1010E00009D515F0400006D020686FF0400101617D
:1010F000204600F01FF8B00658BF70BD15F0200064
:1011000008D021686FF0200220460A61BDE87040D7
:10111000FFF7D0BE70BD00007047000070470000B0
:10112000006841F20001C4F20001884218BF704714
:10113000FFF7C4BA70470000704700007047000016
:10114000B0B582B001680A68CC684B6902F02F051F
:10115000202D04F0200505D125B102B0BDE8B04036
:1011600000F04ABD5FEA027C1EBF03F0010E04F4EA
:10117000907313EB0E0341D1036BD50618D5012BE9
:1011800016D114F0100313D0002201920A680192C4
:101190004A680192019A496949064BD4818DC28DF2
:1011A000C38D002B18BF914240F0F48102B0B0BD56
:1011B00013062DD514F080032AD090F84120212A5F
:1011C000F4D18268B2F5805F03D10269002A00F091
:1011D0006782026A531C036212784A60C28C013A29
:1011E0001304C284E2D1C86820F08000C860C868D7
:1011F00040F04000C86002B0B0BD00BFD30718BFC8
:1012000014F4807340F0D080530700F1D380D8E00D
:101210005206CBD514F04002C8D0CA6822F0400272
:10122000CA60202180F8411002B0BDE8B04000F053
:10123000F9BA00BFC16B0A68526893B2002BB5D0EF
:10124000858DAB42B2D2C285C969B1F5807F00F00D
:10125000A080016851E8031F026821F4807142E810
:101260000313DBB1016851E8031F026821F48071A8
:1012700042E8031393B1016851E8031F026821F4A7
:10128000807142E803134BB1016851E8031F026803
:1012900021F4807142E80313002BDAD1016851E890
:1012A000051F026821F0010142E80513BBB3016884
:1012B00051E8051F026821F0010142E8051373B3EC
:1012C000016851E8051F026821F0010142E8051399
:1012D0002BB3016851E8051F026821F0010142E8C3
:1012E0000513002BDAD11AE0016851E8051F0268E6
:1012F00021F0400142E80513DBB1016851E8051F08
:10130000026821F0400142E8051393B1016851E8F9
:10131000051F026821F0400142E805134BB1016846
:1013200051E8051F026821F0400142E80513002B37
:10133000DAD1202180F8421000210163016851E8D0
:10134000031F026821F0100142E80313DBB10168BA
:1013500051E8031F026821F0100142E8031393B122
:10136000016851E8031F026821F0100142E80313ED
:101370004BB1016851E8031F026821F0100142E8F7
:101380000313002BDAD1C16B04460846FFF766F859
:10139000204602214163818DC28D891A89B202B033
:1013A000BDE8B040FFF7C8BE436C43F0010343649F
:1013B000530706D5BEF1000F03D0436C43F0020380
:1013C0004364930706D5BEF1000F03D0436C43F08E
:1013D00004034364BCF1000F06D55EEA050303D0A5
:1013E000436C43F008034364436C002B3FF4DEAED0
:1013F000920605D525B1044600F0FEFB2168204683
:101400004969426C01F0400102F00802891800F0BD
:10141000B98000BF016851E8031F026821F4907190
:1014200042E80313BBB3016851E8031F026821F4CB
:10143000907142E8031373B3016851E8031F026817
:1014400021F4907142E803132BB3016851E8031FA4
:10145000026821F4907142E80313002BDAD11AE0FC
:10146000016851E8051F026821F0010142E80513F7
:10147000DBB1016851E8051F026821F0010142E873
:10148000051393B1016851E8051F026821F00101BD
:1014900042E805134BB1016851E8051F026821F0CD
:1014A000010142E80513002BDAD1016B012924D197
:1014B000016851E8031F026821F0100142E803139C
:1014C000DBB1016851E8031F026821F0100142E816
:1014D000031393B1016851E8031F026821F0100162
:1014E00042E803134BB1016851E8031F026821F081
:1014F000100142E80313002BDAD1202180F84210BA
:101500000021016301684969490640F1C38001680F
:1015100051E8051F026821F0400142E80513DBB1E4
:10152000016851E8051F026821F0400142E80513F7
:1015300093B1016851E8051F026821F0400142E8BB
:1015400005134BB1016851E8051F026821F0400105
:1015500042E80513002BDAD1C16B002900F09A8014
:1015600041F6ED32C0F60002044608460A65FEF771
:10157000BDFF00283FF41AAEE06B016D02B0BDE87C
:10158000B04008470446FFF7D9FD0020606402B070
:10159000B0BD00BF891A00BF026852E8032F03687C
:1015A00022F4907243E80325BDB3026852E8032F8A
:1015B000036822F4907243E8032575B3026852E889
:1015C000032F036822F4907243E803252DB30268C9
:1015D00052E8032F036822F4907243E80325002D9C
:1015E000DAD11AE0026852E8052F036822F00102FE
:1015F00043E80525DDB1026852E8052F036822F0B3
:10160000010243E8052595B1026852E8052F0368F9
:1016100022F0010243E805254DB1026852E8052F8A
:10162000036822F0010243E80525002DDAD12022CB
:1016300080F8422000220263026852E8032F036808
:1016400022F0100243E80325DDB1026852E8032FBF
:10165000036822F0100243E8032595B1026852E8BE
:10166000032F036822F0100243E803254DB10268FE
:1016700052E8032F036822F0100243E80325002DEF
:10168000DAD1022289B2426302B0BDE8B040FFF76E
:1016900053BD00BF02B0BDE8B040FFF74FBD00BF73
:1016A000026A32F8023B6FF35F234B60026295E5FA
:1016B000002804BF0120704710B5044690F841008F
:1016C00028B9002084F84000204600F021F82420AA
:1016D00084F841002068C16821F40051C1602046AF
:1016E00000F00AFB2068016921F490410161416921
:1016F00021F02A014161C16841F40051C16000201C
:101700002021606484F8411084F84210606310BDA9
:1017100080B586B044F200410068C4F200010022A6
:1017200088420592CDE903220292019202D006B0CE
:1017300080BD00BF43F630000092C4F2020003698E
:1017400043F400330361036903F400330093009B07
:101750000092036843F008030360006800F008008B
:1017600000900098602001900220CDE90202032041
:1017700004900720059001F5E43001A9FEF7C8FEAA
:10178000262005210022FFF751F82620FFF73CF81C
:1017900006B080BD90F84230202B07D100294FF0D1
:1017A000010318BF002A05D11846704702231846C6
:1017B000704700BF00230363816222218285C285B6
:1017C000436480F842100169006819B1C16841F4AE
:1017D0008071C160416941F001014161C16841F01E
:1017E0002001C16018467047006844F20041C4F20D
:1017F0000001884218BF704780B584B040F21011D4
:10180000C2F200014FF0000C01F11400002200238D
:10181000CDE900CCCDF808C0CDF80CC000F0F4FA4A
:1018200004B080BD70470000FEE7000080B588B0BE
:101830000B4802AF01900AA000F1040E9EE80E5082
:10184000806987E80E50079001A8002100F09EFBF8
:1018500040F26811C2F20001086008B080BD00BF0C
:10186000D82D0008E11B0008000000000000000067
:1018700080000000000000000000000083B0002095
:1018800043F630010290C4F202010A6842F080027D
:101890000A600A6802F080020292029A01900A68C5
:1018A00042F001020A600A6802F001020192019A04
:1018B0000090086840F008000860086800F0080020
:1018C0000090009803B0704780B540F2B41044F225
:1018D0000041C2F20000C4F2000100234FF00C0CE2
:1018E0004FF4165280E80E00C0E90333C0E905C387
:1018F000C361FFF7DDFE002808BF80BDBDE8804062
:10190000FEF7A8BDFEE70000FEE7000000000000B3
:10191000EFF30980BFF36F8F154B1A681EF0100F9D
:1019200008BF20ED108A20E9F04F10602DE9090072
:101930004FF0500080F31188BFF34F8FBFF36F8FCC
:1019400000F0D0FF4FF0000080F31188BDE80900DF
:1019500019680868B0E8F04F1EF0100F08BFB0EC2F
:10196000108A80F30988BFF36F8F704700BF00BFF4
:1019700070000020000000000000000000000000D7
:10198000074B19680868B0E8F04F80F30988BFF387
:101990006F8F4FF0000080F31188704700BF00BFC9
:1019A0007000002080B54FF0500080F31188BFF325
:1019B0006F8FBFF34F8F01F0FDF830B14EF604503A
:1019C000CEF200004FF080510160002080F31188BA
:1019D00080BD000070B592B006AC20463021FEF705
:1019E000D1FC002543F640000595CDE90355CDE92E
:1019F00001550095C4F202000168022641F08051B1
:101A00000160006800F080500090009847F20000EC
:101A10000095C4F20000016841F480410160006853
:101A2000A82100F4804000900098012006904FF417
:101A3000803007904FF480000D9004200E9011909C
:101A400020460C96CDE90F16FFF75CF810B172B680
:101A5000FEE700BF0F20CDE901064FF4A05004902F
:101A60004FF48050059001A805210395FEF71AFF59
:101A700010B172B6FEE700BF12B070BD4EF68850CE
:101A8000CEF20000016841F470010160704700006F
:101A900040F26C10C2F20000FFF796BA10B540F6A3
:101AA000FF3E0368C4F2000E40F2004C7045C4F2E1
:101AB000010C25DCB0F1804F2FD040F20042C4F27F
:101AC0000002904229D040F60002C4F20002904287
:101AD00023D041F6FF72C4F20002904227DC704529
:101AE0003ADCB0F1804F5BD040F20042C4F2000219
:101AF000904255D040F60002C4F200024EE000BF12
:101B000040F60042C4F20002904206D0604504D084
:101B10000022C4F201029042DBD14A6823F0700334
:101B2000134341F6FF72C4F200029042D7DD43F640
:101B3000FF72C4F20102904220DC42F20002C4F2C1
:101B4000000290422CD00022C4F20102904227D021
:101B5000604525D028E000BF40F60042C4F20002F4
:101B600090421DD041F60002C4F20002904217D00C
:101B700041F60042C4F2000210E000BF44F200024D
:101B8000C4F2010290420BD044F60002C4F20102FA
:101B9000904205D044F20042C4F20102904203D1C7
:101BA000CA6823F44073134323F080024B69D1F8D1
:101BB00000E08C681A430260C46240F48062C0F89E
:101BC00028E0624504BF096901630121416101699F
:101BD000C90708BF10BD016921F00101016110BDF5
:101BE0004FF4FA7000F0C4F9FAE70000806B0021AE
:101BF000C185C184FFF7A2BA81B090F842102229B2
:101C000021D183680246B3F5805F09D152F8281FBD
:101C100052F8183C002B63D003685B680AE000BFF1
:101C200052F8281F13B90369002BF5D003685B68CD
:101C300003F07F030B70116801311160C18D013910
:101C40000A04C18502D001B0704700BF0168CA68AC
:101C500022F02002CA60CA6822F48072CA604A690F
:101C600022F001024A61202180F8421000214163E4
:101C7000026B012A3CD10163016851E8031F02682D
:101C800021F0100142E80313DBB1016851E8031FA2
:101C9000026821F0100142E8031393B1016851E892
:101CA000031F026821F0100142E803134BB10168E1
:101CB00051E8031F026821F0100142E80313002BD2
:101CC000DAD101680A68D20606D5002200920A68B5
:101CD0000092496800910099818D01B0FFF72CBAFC
:101CE000026852686FF35F2221F8022B8162A5E738
:101CF00001B0FFF779BD0000B0B50446006804F1FB
:101D000008030ECB0569194325F440552A430261A7
:101D10006269E3691143C268194349F20C639A434B
:101D20001143C1604169A26921F4407141F200434D
:101D3000114340F48062C4F201039A42416103D12D
:101D4000FEF796FE02E000BFFEF77EFEE1694FF669
:101D50009C7563681922C0F6FF75B1F5004FA0FBB2
:101D600002011FD15A00DB0FFEF794FA48F21F510F
:101D7000C5F2EB11A0FB01235A0905F1805302FBC8
:101D80000300322303EBC000A0FB01014FF4F87005
:101D900000EA111000EB0210C1F34211084421685F
:101DA0008860B0BD9A009B0FFEF774FA48F21F518D
:101DB000C5F2EB11A0FB01235A0902FB05003223F7
:101DC00003EB0010A0FB0101F02000EA511000EB32
:101DD0000210C1F34311084421688860B0BD0000BF
:101DE00010B540F2B414C2F200042046FFF7A8F97F
:101DF00040F21011C2F2000120460122BDE810405D
:101E0000FFF7C8BCFEE700002DE9F04140F21018D2
:101E1000C2F2000898F80130022B25D0012B13D014
:101E2000002B40F083800978A52940F07F80B8F925
:101E300002104B1CA8F80230A5234354012088F857
:101E400001000020BDE8F08109785A296ED1B8F967
:101E500002104B1CA8F802305A234354022088F881
:101E600001000020BDE8F081B8F902300E78591C5D
:101E70008DB2032DA8F80210C65403D18378A8F8B8
:101E8000043001E0B8F8043009B2DE1D8E424FF094
:101E900000015AD188F80110A8F8021003EB000ED7
:101EA000BEF8041091FA91FCC3B3011D4FF6FF7602
:101EB00000244AF2010500BFE7B2CF5D01347E4045
:101EC00085EA5607F20708BF770885EA5702FE073A
:101ED00008BF7A0885EA5206D70708BF560885EA80
:101EE0005602F70708BF720885EA5206D70708BFEF
:101EF000560885EA5602F70708BF720885EA5207B6
:101F0000D60708BF5708FA0785EA5706E2B208BFA6
:101F10007E089342D0D8B44504D007E04FF6FF7650
:101F2000B44503D19EF80610FF2903D00020BDE878
:101F3000F08100BF0168D0F807204068C8F806109B
:101F40000121C8F80D20C8F80A000846BDE8F08154
:101F5000FEF7C2FBFFF73EFDFFF790FCFFF7B4FC76
:101F600000F0BCFAFFF762FC00F00AF8FEE70000A0
:101F700080B5012898BF012000F0F6FB002080BD4D
:101F800080B500F041FC002080BD0000B0B584B0F9
:101F900043698E4693B1846984B10589D0E9001CF8
:101FA000026928B2843D18BFC51CCDE900536046C4
:101FB0007346029400F0C2FD04B0B0BD0589D0E9BB
:101FC0000013028A28B2843D18BFC51C03AC184612
:101FD0007346CDE9005400F081FD0399012818BF34
:101FE0000021084604B0B0BD2DE9F041044600F0E0
:101FF000FBFA40F27006C2F20006306940F2FC15AE
:10200000013030613068C2F2000548B170690028C3
:1020100040D13068E16AC06A884298BF346039E0D4
:1020200034603069012835D1284600F083FA05F183
:10203000140000F07FFA05F1280000F07BFA05F1AA
:102040003C0000F077FA05F1500000F073FA05F15A
:10205000640000F06FFA05F1780000F06BFA40F2CE
:102060004018C2F20008404600F064FA08F1140774
:10207000384600F05FFA06F1640000F05BFA06F102
:102080003C0000F057FA06F1500000F053FAC6F891
:10209000308077637068B16801220131B160E16A14
:1020A0008A401043706001EB810005EB8000211D28
:1020B00000F082FA00F0BCFA706988B13068E16A19
:1020C000C06A884228BFBDE8F0814EF60450CEF2C7
:1020D00000004FF080510160BFF34F8FBFF36F8F4F
:1020E000BDE8F08140F2700540F2FC164EF604584F
:1020F000C2F20005C2F20006CEF200084FF080578F
:1021000003E000BF204600F0ABFAE868D0B100F071
:102110006BFAA86CC468201D00F0ECF9286901383E
:102120002861E8680138E86000F082FA94F851000C
:102130000228EAD00128E5D070B9206B00F090FAAF
:10214000E0E700BF30680228DFD3C8F80070BFF3B3
:102150004F8FBFF36F8FD8E74FF0500080F3118897
:10216000BFF36F8FBFF34F8FFEE700002DE9F047FD
:10217000DDE909878246386B089C00EB8200043851
:102180009946002920F0070644D0087887F83400E3
:10219000D8B3487887F83500B8B3887887F8360020
:1021A00098B3C87887F8370078B3087987F838008B
:1021B00058B3487987F8390038B3887987F83A00F6
:1021C00018B3C87987F83B00F8B1087A87F83C0063
:1021D000D8B1487A87F83D00B8B1887A87F83E00D0
:1021E00098B1C87A87F83F0078B1087B87F840003B
:1021F00058B1487B87F8410038B1887B87F84200A6
:1022000000281CBFC87B87F84300002087F84300E4
:1022100003E000BF002087F834000025381D062C9D
:1022200028BF0624FC62C7E9114500F08FF907F1C9
:10223000180000F08BF984F00700B8613046514671
:102240004A463F617F62FD6487F8505000F034F9E0
:10225000B8F1000F386018BFC8F80070BDE8F0870B
:1022600008480068006880F308884FF0000080F399
:10227000148862B661B6BFF34F8FBFF36F8F00DF74
:1022800000BF000008ED00E081B00020009040F2A7
:102290000C00C2F2000000684FF0500181F3118879
:1022A000BFF36F8FBFF34F8F013007D0FEE700BF42
:1022B000009830B9009820B9009810B9009800280B
:1022C000F6D001B07047000070B5044600F002FB84
:1022D00040F2E80CC2F2000CDCF8042052B19CF889
:1022E0000000002818BF4FF000404FF0000544BB2D
:1022F00081E000BF40F28820C2F20000420700F5F2
:10230000705200F1070122F0070218BF21F0070008
:102310000021A2F10803CCE90601CCF8043042E91F
:102320000211DCF80420191AC0E9002101208CF800
:1023300000004FF00040CCE90211002C4FF00005E6
:1023400059D0204057D124F0070000F11003600756
:1023500008BF04F10803DCF80800591E81424AD284
:10236000604650F818EFDEF804509D422BD2DEF89C
:102370000010B9B174464D689D4217D20E68AEB1D7
:1023800075689D4216D23068A0B145689D4215D24D
:1023900004689CB165689D4214D22168A646002954
:1023A000E9D110E00CF118000DE000BF8E46204688
:1023B00009E000BFB646084605E000BF8646304645
:1023C00001E000BFA646964514D00268DEF8004042
:1023D000E91A112904604DD30EEB0305680719D0E3
:1023E0004FF0500080F31188BFF36F8FBFF34F8F12
:1023F000FEE700BF002500F061FC68075AD04FF0EF
:10240000500080F31188BFF36F8FBFF34F8F00BF71
:10241000FEE700BF0CF118006960CEF8043000BF81
:102420000168A9420AD20868A8420BD20168A942F1
:1024300004D208680B46A842F2D304E003460846DB
:1024400001E000BF0B465C6869681E19AE4202D10C
:1024500021441D4659606C18844207D1DCF80440C1
:10246000A04203D0D0E9000421446960AB42286057
:1024700018BF1D60DEF80400DCE9021302F1080554
:10248000091A9942CCF8081038BFCCF80C109CF807
:10249000001000294FF0000118BF40F00040CEE9C5
:1024A0000010DCF810000130CCF8100000F006FC41
:1024B0006807A4D1284670BD034642F2892021F066
:1024C0000101C0F600004FF0807C03E903106FF0BB
:1024D0000201A3F1440043E90912704740F2B4102D
:1024E00040F21011C2F20000C2F200010122FFF717
:1024F00051B900000169D0E90132D1F804C09A60F5
:102500008445536008BF4A600022026108680138B0
:10251000086008687047000044F28C03C2F20003B0
:10252000036043F68C60C2F20000086080201060F7
:10253000704700004FF0FF31024642F8081F0021AB
:102540004260C0E903220160704700000021016180
:102550007047000010B5D1F800C01CF1010213D083
:1025600000F1080462681368634511D853681C6859
:10257000644511D85A68146864450FD854682368B4
:10258000A6466345EED90BE00269D2F804E007E005
:102590009646224604E000BF9E4601E096461A4653
:1025A000C1F804E0CEF808108A6051600861016843
:1025B0000131016010BD0000D0F800C0436808611F
:1025C0009A68C1E90132516099600CF10101016022
:1025D00070470000DFF80C00016841F470010160F1
:1025E0007047000088ED00E04FF0500080F3118844
:1025F000BFF36F8FBFF34F8F40F20C00C2F20000A9
:1026000001684A1C026009B1704700BF4EF60450D1
:10261000CEF200000068000608BF70474FF050007F
:1026200080F31188BFF36F8FBFF34F8FFEE7000079
:1026300040F20C00C2F20000016839B101390160BA
:1026400018BF7047002080F3118870474FF050008A
:1026500080F31188BFF36F8FBFF34F8FFEE7000049
:1026600070B5002808BF70BD40F2E804C2F2000453
:10267000217850F8042C002918BF4FF00041114276
:102680000ED0A0F108052B68A3B14FF0500080F3E5
:102690001188BFF36F8FBFF34F8F00BFFEE700BFFE
:1026A0004FF0500080F31188BFF36F8FBFF34F8F4F
:1026B000FEE700BF22EA010140F8041C064600F0D4
:1026C00009F956F8041CA0680844A06004F1180039
:1026D0000368AB420AD21868A84225D20368AB420D
:1026E00004D218681A46A842F2D301E002461846FE
:1026F0005368D618AE4202D11944154651606B1882
:10270000834206D16368984203D0D0E9000319449C
:102710006960AA42286018BF156060690130606175
:10272000BDE8704000F0CABA1A465368D618AE42E7
:10273000E5D1E1E74EF21000CEF200000021016089
:10274000816040F20801C2F20001096844F6D352E8
:10275000C1F26202A1FB02124FF0FF3101EB9211B4
:10276000416007210160704770B500283FD040F2FA
:102770007004C2F20004A16951B14FF0500080F31F
:102780001188BFF36F8FBFF34F8F00BFFEE700BF0D
:102790000546A0690130A061E66920680430FFF7B2
:1027A000A9FE48B12068AD19456012D3606B21685D
:1027B0000431FFF7CFFE15E020680121C06A62688E
:1027C00001FA00F022EA000060602068AD1945605F
:1027D000ECD2206B21680431FFF7BCFE606A8542B1
:1027E00038BF656200F06AFA002818BF70BD4EF667
:1027F0000450CEF200004FF080510160BFF34F8FC4
:10280000BFF36F8F70BD0000B0B588B00020CDE978
:10281000050006A805A904AAFFF77EFE0598B8B32F
:10282000069C002C3ED05421049A07910799542904
:1028300042D107992063022084F8510007A800259F
:10284000CDE9005042F2E500C0F600001FA10023D0
:102850000294FFF78BFC2046FFF7C6FB079940F276
:102860007000C2F20000016279B14FF0500181F3B3
:102870001188BFF36F8FBFF34F8F4FF0FF3141626D
:1028800001214161C56100F065F808B0B0BD00BF2D
:102890004FF0500080F31188BFF36F8FBFF34F8F5D
:1028A000FEE700BF4FF0500080F31188BFF36F8F39
:1028B000BFF34F8FFEE700BF4FF0500080F3118849
:1028C000BFF36F8FBFF34F8FFEE700BF49444C4506
:1028D0000000000040F27000C2F200008169013186
:1028E0008161704740F27000C2F2000081690029E6
:1028F0001EBF012181627047002181624168B1FAE7
:1029000081F1C9B2C1F11F0140F2FC1201EB81015A
:10291000C2F2000252F8213063B102EB8102516829
:1029200002F108034968994251600DD0C9680160FD
:10293000704700BF4FF0500080F31188BFF36F8FD6
:10294000BFF34F8FFEE700BF49685160C96801605F
:1029500070470000B0B584B04EF2004CCEF2000CCF
:102960004CF27021C4F20F11DCF800294B1C9A4282
:102970000AD14FF0500080F31188BFF36F8FBFF37F
:102980004F8F00BFFEE700BFDCF800298A4209D163
:102990004FF0500080F31188BFF36F8FBFF34F8F5C
:1029A000FEE700BF9CF800100291FF218CF8001098
:1029B0009CF800108DF807109DF8071001F05002E8
:1029C00040F20811C2F200010A7007224A609DF924
:1029D0000720B2F1FF3F6BDC032200BFD31C4B602A
:1029E0009DF8070040008DF807009DF90700B0F141
:1029F000FF3F24DC931C4B609DF8070040008DF8DE
:102A000007009DF90700B0F1FF3F18DC531C4B6035
:102A10009DF8070040008DF807009DF90700B0F110
:102A2000FF3F0CDC4A609DF80700043A40008DF837
:102A300007009DF90700B0F1FF3FCFDD131D032B09
:102A400036D14FF44070486002988CF80000DCF8F2
:102A5000200940F47000CCF82009DCF8200940F08F
:102A60007040CCF82009FFF765FE40F20C04C2F27A
:102A7000000400252560FFF7ADFD4EF63470CEF260
:102A80000000016841F040410160FFF7E9FBFFF7FA
:102A900029FF039520684FF0500181F31188BFF39F
:102AA0006F8FBFF34F8F013012D000BFFEE700BF22
:102AB0004FF0500080F31188BFF36F8FBFF34F8F3B
:102AC000FEE700BF039830B9039820B9039810B906
:102AD00003980028F6D0002004B0B0BD2DE9F041E5
:102AE00084B007469000984615460E46FFF7ECFB6B
:102AF000F8B104465420FFF7E7FBB8B1DDE90A213D
:102B00000023046380F85130CDE9002104463846A3
:102B100031462A4643460294FFF728FB2046FFF73A
:102B200063FA012004B0BDE8F08100BF2046FFF742
:102B300097FD4FF0FF3004B0BDE8F08170B586B06E
:102B40000B9CCCB10C9E0EB354250495049D542DC2
:102B500026D1049DDDF828C0022586F8515005AD28
:102B60003463CDE900C50296FFF700FB3046FFF75E
:102B70003BFA059806B070BD4FF0500080F3118805
:102B8000BFF36F8FBFF34F8FFEE700BF4FF05000D2
:102B900080F31188BFF36F8FBFF34F8FFEE700BF45
:102BA0004FF0500080F31188BFF36F8FBFF34F8F4A
:102BB000FEE700002DE9F04740F27006C2F2000681
:102BC000B06928B1F06A0130F0620020BDE8F087FA
:102BD000F06910F1010AC6F81CA020D3306B006820
:102BE00050B14FF0500080F31188BFF36F8FBFF3E7
:102BF0004F8F00BFFEE700BF306B716B31637063B6
:102C0000B06B0130B063306B006828B1306BC068C6
:102C1000C068406802E000BF4FF0FF307062706A29
:102C200040F2FC188245C2F2000801D2002434E0D0
:102C3000306B0024006868B34FF0010916E000BF54
:102C4000F86A716809FA00F2114300EB80007160C4
:102C500008EB80002946FFF7AFFCF86A3168C96AC3
:102C6000326B8842106828BF4C4698B1306BC06800
:102C7000C7683D4655F8040F82450DD32846FFF737
:102C800039FCB86A0028DBD007F11800FFF732FCE6
:102C9000D6E700BF4FF0FF3070623068C06A00EBCB
:102CA000800058F82000012888BF0124B06A00285D
:102CB00018BF01242046BDE8F08700002DE9F0414F
:102CC00040F27005C2F20005A86968B1FFF78CFCFC
:102CD000A8690138A861A86980B10024FFF7A8FCA1
:102CE0002046BDE8F08100BF4FF0500080F311880E
:102CF000BFF36F8FBFF34F8FFEE700BF2869002837
:102D0000EBD0686E78B340F2FC180126C2F20008DE
:102D1000286FC76807F11800FFF7ECFB3C1D204641
:102D2000FFF7E8FBF86A696806FA00F2114300EB66
:102D30008000696008EB80002146FFF73DFCF86ADF
:102D40002968C96A884228BFAE62686E0028DFD150
:102D5000286B006820B1286BC068C068406801E03B
:102D60004FF0FF306862EC6A4CB10126FFF722FF9A
:102D7000002818BFAE62013CF8D10020E862A86AC2
:102D80000028AAD04EF60450CEF200004FF0805139
:102D90000160BFF34F8F0124BFF36F8FFFF748FC33
:102DA0002046BDE8F081F1EE100A4FF6FF71C0F247
:102DB000C03120EA010040F04070E1EE100A704797
:102DC00000000000000000000102030406070809DB
:102DD00000000000010203045472616E736D697497
:102DE0005F5441534B000000082E000800000020F3
:102DF00010000000EC010008182E00081000002050
:102E0000D04600000C020008010000001000000085
:082E10000024F400AAAAAAAAFA
:040000050800018965
:00000001FF
