:020000040800F2
:100000006847002055020008A11A0008C11900081D
:100010009D1A00084D04000811200008000000008F
:10002000000000000000000000000000211B00088C
:100030005104000800000000B11A0008451B000828
:100040006F0200086F0200086F0200086F020008CC
:100050006F0200086F0200086F0200086F020008BC
:100060006F0200086F0200086F0200086F020008AC
:100070006F0200086F0200086F0200086F0200089C
:100080006F0200086F0200086F0200086F0200088C
:100090006F0200086F0200086F0200086F0200087C
:1000A0006F0200086F0200086F0200086F0200086C
:1000B0006F0200086F0200086F0200086F0200085C
:1000C0006F0200086F0200086F0200086F0200084C
:1000D0006F0200086F020008ED1F00086F020008A1
:1000E0006F0200086F0200086F0200086F0200082C
:1000F0006F0200086F0200086F0200086F0200081C
:100100006F0200086F0200086F0200086F0200080B
:100110006F0200086F020008311C00086F0200081F
:100120006F0200086F0200086F0200086F020008EB
:100130006F0200086F0200086F0200086F020008DB
:100140006F0200086F0200086F0200086F020008CB
:100150006F0200086F0200086F0200086F020008BB
:100160006F0200086F0200086F0200086F020008AB
:100170006F0200086F0200086F0200080000000014
:100180006F0200086F02000800F002F800F052F859
:1001900014A696E8000CB244B344DA4501D100F04D
:1001A00049F8BAE80F000FA696E83000A5EB040561
:1001B00004EB0607AAEB0704A7F101074FEA1515A0
:1001C0004FEA3414A4F10104AC4201D300F032F838
:1001D00013F0010F18BFFB1A43F0010300F001F800
:1001E000DBE718471036000030360000103A24BF15
:1001F00078C878C1FAD8520724BF30C830C144BF8C
:1002000004680C6070470000704700000023002461
:1002100000250026103A28BF78C1FBD8520728BF16
:1002200030C148BF0B6070471FB503F0C2FA1FBD55
:1002300010B510BD00F0D0F81146FFF7F5FF02F041
:1002400025FB00F0EEF803B4FFF7F2FF03BC00F06B
:10025000F5F800000948804709480047FEE7FEE737
:10026000FEE7FEE7FEE7FEE7FEE7FEE7FEE7FEE766
:1002700004480549054A064B704700001D1C00084C
:100280008901000868410020684700206843002079
:100290006843002053EA020C00F069802DE9F04B1E
:1002A0004FF00006002B1FBFB3FA83F503FA05F4E5
:1002B00024FA05F65E4012BF1643B2FA82F502FA3E
:1002C00005F4C5F120051EBF22FA05FC44EA0C0422
:1002D000203556EA044C4FEA144418BF641C4FF012
:1002E00000084FF00009904271EB030C39D300294C
:1002F00019BFB1FA81F701FA07F6B0FA80F700FAF0
:1003000007F6C7F120071EBF20FA07FC46EA0C06D5
:100310002037B6FBF4FCA7EB0507103F07F01F0BD7
:10032000CBF120062CFA06F60CFA0BFB44BFB346C1
:100330000026202FA4BF5E464FF0000B5BEA060CA0
:1003400008BF4FF0010B19EB0B0948EB0608ABFB9C
:10035000027C06FB02CC0BFB03CCC01B71EB0C0137
:10036000C1E70B46024641464846BDE8F08B13B54F
:10037000084318BF4FF0FF300146AFF30080BDE8DF
:100380001C4070474FF0000200B513469446964655
:10039000203922BFA0E80C50A0E80C50B1F1200198
:1003A000BFF4F7AF090728BFA0E80C5048BF0CC046
:1003B0005DF804EB890028BF40F8042B08BF7047A4
:1003C00048BF20F8022B11F0804F18BF00F8012B16
:1003D0007047704770477047754600F02BF8AE467F
:1003E00005006946534620F00700854618B020B541
:1003F000FFF73EFFBDE820404FF000064FF000073A
:100400004FF000084FF0000BAC46ACE8C009ACE878
:10041000C009ACE8C009ACE8C00921F007018D466D
:10042000704710B50446AFF300802046BDE8104089
:10043000FFF709BF0048704710000020014918204D
:10044000ABBEFEE72600020070470000FEE700009A
:100450007047000072B600BFFEE7000070B5866D01
:10046000044600F025F994F83510022928D10546F4
:100470002068216C026822F016020260426922F0B4
:100480008002426109B9A16C19B1016821F008012B
:100490000160016821F00101016000BF206800686F
:1004A000C00715D000F004F9401B0628F6D3202021
:1004B0006065032084F83500002184F8341070BD95
:1004C000802060650120002184F8341070BD00BFD9
:1004D000E06D3F2101FA00F0B060012084F83500A2
:1004E0000020002184F8341070BD000090F8351011
:1004F000022909D1052180F835100068016821F032
:100500000101016000207047802141650120704792
:100510002DE9F04F83B000F1200200F13E4741F693
:100520000045009207F1FF77C4F2020508224FEA66
:10053000B726A84208BF072200254FF000084FF059
:100540000009072E38BF4FEAB72201920AE000BF28
:1005500009F1010908F10208B9F1100F05F10405CC
:1005600000F0A2800F68012202FA09FE17EA0E0AC3
:10057000EED0D1F804C003220CF003077E1E02FA6D
:1005800008F4012E6FEA040B12D88468CE6804EADE
:100590000B0406FA08F634438460446824EA0E0625
:1005A000CCF3001404FA09F42643466004E000BFCB
:1005B000032F01D103271EE0C6688C6806EA0B06EC
:1005C00004FA08F42643022FC66014D16FF0030228
:1005D000009E02EA590756F807C005F01C040F22D6
:1005E0000B69A2402CEA0202A3401A43F251D1F84F
:1005F00004C00CF00307026807FA08F302EA0B02D2
:100600001A431CF4403F0260A2D0002243F6440388
:100610000292C4F202031A6843F6004442F4804294
:100620001A601A68C4F2010402F480420292029A2B
:1006300029F003024FF6084C2244CFF6FF7C52F813
:100640000C3005F00C070F26BE40B343019E06FA9E
:1006500007F73B4342F80C30A2684B6842EA0A07AE
:1006600043F60C4CDE0258BF22EA0A07A760C4F228
:10067000010CDCF800209E0242EA0A0758BF22EA79
:100680000A07CCF8007062689E0342EA0A0758BF66
:1006900022EA0A0767602268DB0342EA0A0758BFBA
:1006A00022EA0A07276053E703B0BDE8F08F000095
:1006B00043F60C70C2F200000068704740F2000080
:1006C00043F60C71C2F20000C2F2000100780A6821
:1006D000104408607047000080B543F60040C4F243
:1006E0000200016841F400710160016841F4806119
:1006F0000160016841F480710160032000F0C2F8DC
:100700000F2000F005F800F05DF8002080BD00002B
:1007100070B586B0002543F640010195C4F2020190
:100720000A68044642F010020A60096801A801F054
:10073000100101910199694600F066F9049E002EAE
:1007400018BF012600F080F94DF68361B040C4F275
:100750001B31A0FB01014FF0FF3000EB914140F253
:10076000441041F20002C2F20000C4F2000240F262
:10077000E733C0E90021C0E902530561856100F05B
:100780009BFB08B106B070BD40F24410C2F20000FD
:1007900000F0C2FB0028F5D1362000F035F80F2C10
:1007A0000CD836202146002200F040F840F2040127
:1007B0000020C2F200010C6006B070BD012006B03E
:1007C00070BD000082B0002043F640010190C4F2E9
:1007D00002014A6842F480424A604A6802F4804258
:1007E0000192019A00900868002240F08050086051
:1007F00008680F2100F08050009000986FF0010011
:1008000002B000F013B80000002848BF704700F0A5
:100810001F01012202FA01F11C2202EAD0004EF26D
:100820000012CEF2000281507047000010B54EF663
:100830000C5CCEF2000CDCF80030C3F3022E8EF01C
:100840000704042C28BF0424BEF103034FF0FF3E2D
:100850000EFA04F438BF0023A14399400EFA03F3C3
:100860009A43114300F00F0200F160430901043A7A
:1008700003F564436244002848BF02F10C03197079
:1008800010BD00004EF60C51CEF200010A684FF682
:10089000FF031A4060F30A2242F0806040F0FD70CE
:1008A00008607047002804BF012070472DE9F0411F
:1008B00043F60808C4F202080446D8F8F8030D46C7
:1008C00000F00700884207D288F8F853D8F8F803F8
:1008D00000F00700A84277D12068810717D54107AB
:1008E00005D5D8F8001041F4E051C8F80010010710
:1008F00005D5D8F8001041F46041C8F80010D8F8C8
:100900000010A26821F0F0011143C8F80010C007E0
:1009100040D1D8F8F80300F00700A84207D988F8BA
:10092000F853D8F8F80300F00700A8424CD120682B
:10093000410707D5D8F80010E26821F4E0511143CF
:10094000C8F80010000708D5D8F80000216920F485
:10095000604040EAC100C8F8000000F09DF8D8F8F7
:10096000001043F2CC72C1F30311C0F60002515CD7
:1009700040F2080220FA01F140F20400C2F2000045
:100980000068C2F200021160FFF7C2FE0020BDE85D
:10099000F08100BF6068811E022907D258F8081C48
:1009A00089015CBF0120BDE8F08111E0012807D179
:1009B00058F8081C89035CBF0120BDE8F08107E0FE
:1009C00058F8081C890703D40120BDE8F08100BF56
:1009D000D8F8001021F003010843C8F80000FFF721
:1009E00067FE064641F28837D8F80000616800F0DB
:1009F0000C00B0EB810F8CD0FFF75AFE801BB84281
:100A0000F2D90320BDE8F0810F22026043F608020C
:100A1000C4F20202136803F003034360136803F097
:100A2000F0038360136803F4E053C360D2F800C09E
:100A30004FF4E05303EADC030361D2F8F80300F05B
:100A4000070008607047000040F2080043F6080104
:100A5000C2F20000C4F202010068096843F2DC72CD
:100A6000C1F38221C0F60002515CC840704700000B
:100A700040F2080043F60801C2F20000C4F202018D
:100A80000068096843F2DC72C1F34231C0F600022B
:100A9000515CC8407047000010B543F60404C4F22E
:100AA0000204606800F00C0142F200400829C0F224
:100AB000F40007D0042918BF10BD41F20020C0F295
:100AC0007A0010BD216801F03F02216823684902C5
:100AD000C3F3881106D4A1FB00010023FFF7DAFB62
:100AE00007E000BF41F20020C0F27A004843B0FBAB
:100AF000F2F021680222C1F3014102EB4101B0FB97
:100B0000F1F010BD002804BF012070472DE9F0412D
:100B100082B00446007843F60006C007C4F202061D
:100B20000CD0B06800F00C00042840F081803068E0
:100B3000800303D56068002800F068812078800772
:100B40001BD5B06810F00C0F09D0B06800F00C0095
:100B5000082840F087807068400200F18380306888
:100B6000800703D5E068012840F050813068216992
:100B700020F0F80040EAC10030602078000713D46C
:100B8000207840072AD4A569002D00F03A81B0688A
:100B900000F00C00082840F0A580012D40F00E81E7
:100BA000012002B0BDE8F0816069002800F0828079
:100BB0000020C4F247200121C0F8801EFFF778FD15
:100BC000054600BF706F8007DAD4FFF771FD401B48
:100BD0000228F7D9032002B0BDE8F081306C5FEA4B
:100BE000C0080AD400200190306C40F0805030647E
:100BF000306C00F080500190019847F20007C4F279
:100C000000073868C00547D4386840F48070386001
:100C1000FFF74EFD054600BF3868C0053CD4FFF71E
:100C200047FD401B0228F7D9032002B0BDE8F08140
:100C3000B06800F00C00082803D1706840023FF54E
:100C400076AF61683068B1F5803F07D0B1F5A02F6D
:100C500040F09A8040F480203060306840F480306A
:100C600030609AE0E068002840F20000C4F24720BB
:100C70005CD001210160FFF71BFD0546306880074D
:100C80003FF574AFFFF714FD401B0228F6D903208F
:100C900002B0BDE8F08100BFA168306F012905D026
:100CA000052955D140F004003067306F40F0010055
:100CB000306756E00020C4F247200021C0F8801EB3
:100CC000FFF7F6FC054600BF706F80077FF558AF51
:100CD000FFF7EEFC401B0228F6D9032002B0BDE866
:100CE000F08100BF0027C4F2472700203866FFF7D5
:100CF000DFFC022D05460DD13068800140F18A806D
:100D0000FFF7D6FC401B02284FF00300F4D902B0D5
:100D1000BDE8F0813068800173D5FFF7C9FC401B46
:100D200002284FF00300F5D9F1E700BF0021016070
:100D3000FFF7BEFC054600BF306880077FF51DAF9A
:100D4000FFF7B6FC401B02284FF00300F4D9DEE7A2
:100D500020F001003067306F002920F00400306778
:100D60007AD0FFF7A5FC054641F28837306F80073F
:100D700000F18480FFF79CFC401BB842F6D90320A9
:100D800002B0BDE8F08100BF20F4803030603068F0
:100D9000002920F4802030607AD0FFF789FC0546D6
:100DA000306880033FF5CAAEFFF782FC401B642821
:100DB000F6D9032002B0BDE8F08100BF7068E16998
:100DC00000F480028A4221D1216A00F03F028A4267
:100DD0001CD147F6C071626A0140B1EB821F15D188
:100DE000A16A4FF6FF73C903994300F44032A1F59D
:100DF00080318A420AD1E16A00F07060B0EB016F85
:100E000004D1002002B0BDE8F08100BF012002B093
:100E1000BDE8F08104F11C052FCD084340EA8210A3
:100E2000D9034FF6FF729143A1F5803140EA056086
:100E30000843706001203866FFF73AFC044600BFA3
:100E400030688001DDD4FFF733FC001B02284FF02F
:100E50000300F5D95BE700BFFFF72AFC054641F226
:100E6000883700BF306F800708D5FFF721FC401B93
:100E7000B8424FF00300F5D949E700BFB8F1000FC1
:100E80003FF581AE306C20F0805030647BE600BFCF
:100E9000FFF70EFC054600BF306880037FF54EAEBD
:100EA000FFF706FC401B64284FF00300F4D92EE73F
:100EB0007047000070470000002804BF0120704701
:100EC00010B5044690F83D0028B9002084F83C0095
:100ED000204600F01FF8022084F83D002068211D04
:100EE00000F0ACFE012084F8460084F83E0084F84F
:100EF0003F0084F8400084F8410084F8420084F800
:100F0000430084F8440084F8450084F83D00002044
:100F100010BD00007047000090F83D1001291CBF73
:100F200001207047022180F83D10006841F2FF72F5
:100F3000C168C4F20002904241F00101C1600DDCC1
:100F400040F2FF71C4F20001884215DCB0F1804F1D
:100F50002AD040F20041C4F2000123E040F2FF3108
:100F6000C4F20101884213DC41F60001C4F2000121
:100F7000884219D0002113E040F60001C4F20001BC
:100F8000884211D040F60041C4F200010AE000BFDF
:100F900044F20001C4F20101884205D040F2004150
:100FA000C4F20101884206D1816801F007010629D7
:100FB00004BF00207047016841F00101016000207A
:100FC000704700007047000070B504460068C568AF
:100FD0000669B10716D515F0020113D06FF00201B2
:100FE0000161012121778069800703D02046FFF746
:100FF000E9FF05E0204600F08FF8204600F08EF86B
:1010000000202077700719D515F0040016D020684D
:101010006FF00401016102212177806910F4407FA3
:1010200004D02046FFF7CEFF06E000BF204600F0C8
:1010300073F8204600F072F800202077300717D5AB
:1010400015F0080014D020686FF008010161042138
:101050002177C069800703D02046FFF7B3FF05E082
:10106000204600F059F8204600F058F8002020777C
:10107000F00619D515F0100016D020686FF0100199
:10108000016108212177C06910F4407F04D0204617
:10109000FFF798FF06E000BF204600F03DF820462D
:1010A00000F03CF800202077F00718BF15F0010091
:1010B00002D1300609D412E020686FF0010101610D
:1010C000204600F02DF8300609D515F0800006D036
:1010D00020686FF0800101612046FFF7E9FE70068D
:1010E00009D515F0400006D020686FF0400101617D
:1010F000204600F01FF8B00658BF70BD15F0200064
:1011000008D021686FF0200220460A61BDE87040D7
:10111000FFF7D0BE70BD00007047000070470000B0
:10112000006841F20001C4F20001884218BF704714
:10113000FFF7C4BA70470000704700007047000016
:10114000B0B582B001680A68CC684B6902F02F051F
:10115000202D04F0200505D125B102B0BDE8B04036
:1011600000F050BE5FEA027C1EBF03F0010E04F4E3
:10117000907313EB0E0341D1036BD50618D5012BE9
:1011800016D114F0100313D0002201920A680192C4
:101190004A680192019A496949064BD4818DC28DF2
:1011A000C38D002B18BF914240F0F48102B0B0BD56
:1011B00013062DD514F080032AD090F84120212A5F
:1011C000F4D18268B2F5805F03D10269002A00F091
:1011D0006782026A531C036212784A60C28C013A29
:1011E0001304C284E2D1C86820F08000C860C868D7
:1011F00040F04000C86002B0B0BD00BFD30718BFC8
:1012000014F4807340F0D080530700F1D380D8E00D
:101210005206CBD514F04002C8D0CA6822F0400272
:10122000CA60202180F8411002B0BDE8B04000F053
:10123000C5BB00BFC16B0A68526893B2002BB5D022
:10124000858DAB42B2D2C285C969B1F5807F00F00D
:10125000A080016851E8031F026821F4807142E810
:101260000313DBB1016851E8031F026821F48071A8
:1012700042E8031393B1016851E8031F026821F4A7
:10128000807142E803134BB1016851E8031F026803
:1012900021F4807142E80313002BDAD1016851E890
:1012A000051F026821F0010142E80513BBB3016884
:1012B00051E8051F026821F0010142E8051373B3EC
:1012C000016851E8051F026821F0010142E8051399
:1012D0002BB3016851E8051F026821F0010142E8C3
:1012E0000513002BDAD11AE0016851E8051F0268E6
:1012F00021F0400142E80513DBB1016851E8051F08
:10130000026821F0400142E8051393B1016851E8F9
:10131000051F026821F0400142E805134BB1016846
:1013200051E8051F026821F0400142E80513002B37
:10133000DAD1202180F8421000210163016851E8D0
:10134000031F026821F0100142E80313DBB10168BA
:1013500051E8031F026821F0100142E8031393B122
:10136000016851E8031F026821F0100142E80313ED
:101370004BB1016851E8031F026821F0100142E8F7
:101380000313002BDAD1C16B04460846FFF766F859
:10139000204602214163818DC28D891A89B202B033
:1013A000BDE8B040FFF7C8BE436C43F0010343649F
:1013B000530706D5BEF1000F03D0436C43F0020380
:1013C0004364930706D5BEF1000F03D0436C43F08E
:1013D00004034364BCF1000F06D55EEA050303D0A5
:1013E000436C43F008034364436C002B3FF4DEAED0
:1013F000920605D525B1044600F004FD216820467B
:101400004969426C01F0400102F00802891800F0BD
:10141000B98000BF016851E8031F026821F4907190
:1014200042E80313BBB3016851E8031F026821F4CB
:10143000907142E8031373B3016851E8031F026817
:1014400021F4907142E803132BB3016851E8031FA4
:10145000026821F4907142E80313002BDAD11AE0FC
:10146000016851E8051F026821F0010142E80513F7
:10147000DBB1016851E8051F026821F0010142E873
:10148000051393B1016851E8051F026821F00101BD
:1014900042E805134BB1016851E8051F026821F0CD
:1014A000010142E80513002BDAD1016B012924D197
:1014B000016851E8031F026821F0100142E803139C
:1014C000DBB1016851E8031F026821F0100142E816
:1014D000031393B1016851E8031F026821F0100162
:1014E00042E803134BB1016851E8031F026821F081
:1014F000100142E80313002BDAD1202180F84210BA
:101500000021016301684969490640F1C38001680F
:1015100051E8051F026821F0400142E80513DBB1E4
:10152000016851E8051F026821F0400142E80513F7
:1015300093B1016851E8051F026821F0400142E8BB
:1015400005134BB1016851E8051F026821F0400105
:1015500042E80513002BDAD1C16B002900F09A8014
:1015600041F6F952C0F60002044608460A65FEF745
:10157000BDFF00283FF41AAEE06B016D02B0BDE87C
:10158000B04008470446FFF7D9FD0020606402B070
:10159000B0BD00BF891A00BF026852E8032F03687C
:1015A00022F4907243E80325BDB3026852E8032F8A
:1015B000036822F4907243E8032575B3026852E889
:1015C000032F036822F4907243E803252DB30268C9
:1015D00052E8032F036822F4907243E80325002D9C
:1015E000DAD11AE0026852E8052F036822F00102FE
:1015F00043E80525DDB1026852E8052F036822F0B3
:10160000010243E8052595B1026852E8052F0368F9
:1016100022F0010243E805254DB1026852E8052F8A
:10162000036822F0010243E80525002DDAD12022CB
:1016300080F8422000220263026852E8032F036808
:1016400022F0100243E80325DDB1026852E8032FBF
:10165000036822F0100243E8032595B1026852E8BE
:10166000032F036822F0100243E803254DB10268FE
:1016700052E8032F036822F0100243E80325002DEF
:10168000DAD1022289B2426302B0BDE8B040FFF76E
:1016900053BD00BF02B0BDE8B040FFF74FBD00BF73
:1016A000026A32F8023B6FF35F234B60026295E5FA
:1016B000002804BF0120704710B5044690F841008F
:1016C00028B9002084F84000204600F021F82420AA
:1016D00084F841002068C16821F40051C1602046AF
:1016E00000F010FC2068016921F49041016141691A
:1016F00021F02A014161C16841F40051C16000201C
:101700002021606484F8411084F84210606310BDA9
:1017100080B586B044F200410068C4F200010022A6
:1017200088420592CDE903220292019202D006B0CE
:1017300080BD00BF43F630000092C4F2020003698E
:1017400043F400330361036903F400330093009B07
:101750000092036843F008030360006800F008008B
:1017600000900098602001900220CDE90202032041
:1017700004900720059001F5E43001A9FEF7C8FEAA
:10178000262005210022FFF751F82620FFF73CF81C
:1017900006B080BD90F84230202B07D100294FF0D1
:1017A000010318BF002A05D11846704702231846C6
:1017B000704700BF00230363816222218285C285B6
:1017C000436480F842100169006819B1C16841F4AE
:1017D0008071C160416941F001014161C16841F01E
:1017E0002001C16018467047006844F20041C4F20D
:1017F0000001884218BF704780B584B040F2642071
:1018000040F260214FF0000CC2F20000C2F2000171
:1018100000220023CDE900CCCDF808C0CDF80CC0E3
:1018200000F048FC04B080BD2DE9F04381B00446CF
:1018300090F84100202809D100294FF0010018BF7D
:10184000002A07D101B0BDE8F08300BF022001B03B
:10185000BDE8F0830020606421201D460E4684F818
:1018600041001746FEF724FFA784E784A16881465C
:10187000B1F5805F02D1206900285DD03746002095
:10188000E28C2168002A5DD06A1C24D0002D4AD049
:10189000804600BF0868000608D4FEF709FFA0EBE9
:1018A0000900A8427AD82168C868F3E717B117F889
:1018B000010B04E038F8020B00276FF35F2048604B
:1018C000E08C0138E084E08C0028E3D13AE000BFEE
:1018D0000A68120609D40A68120606D40A681206B3
:1018E0005CBF0A685FEA0262F2D51FB117F8012BEC
:1018F00005E000BF30F8022B00276FF35F224A603B
:10190000E28C013AE284E28C002AE4D11AE000BFC2
:1019100030F8022B00276FF35F224A60E28C013A15
:10192000E284E28C72B10A68120635D5002FEFD03E
:1019300017F8012BF1E700BF00273046E28C216841
:10194000002AA1D1086840061ED42DB3681C14D10A
:10195000086840062AD40868400627D4086840066C
:1019600024D4086840064FF00000F1D50DE000BF18
:101970002068C1680068400618D4FEF799FEA0EB05
:101980000900A842F4D909E00020202184F8411080
:1019900001B0BDE8F08300BFFEF78AFE03202021DE
:1019A00084F8411001B0BDE8F08300BF0020202181
:1019B00084F8411001B0BDE8F083000070470000DA
:1019C000FEE7000080B588B00B4802AF01900AA086
:1019D00000F1040E9EE80E50806987E80E500790D3
:1019E00001A8002100F078FF40F24011C2F200018E
:1019F000086008B080BD00BFE4370008811D000802
:101A00000000000000000000800000000000000056
:101A10000000000083B0002043F630010290C4F2C1
:101A200002010A6842F080020A600A6802F080023D
:101A30000292029A01900A6842F001020A600A6862
:101A400002F001020192019A0090086840F008003B
:101A50000860086800F008000090009803B0704724
:101A600080B540F28C1044F20041C2F20000C4F292
:101A7000000100234FF00C0C4FF4165280E80E00CA
:101A8000C0E90333C0E905C3C361FFF711FE0028B5
:101A900008BF80BDBDE88040FEF7DCBCFEE700006B
:101AA000FEE7000000000000000000000000000051
:101AB000EFF30980BFF36F8F154B1A681EF0100FFC
:101AC00008BF20ED108A20E9F04F10602DE90900D1
:101AD0004FF0500080F31188BFF34F8FBFF36F8F2B
:101AE00001F0F6FB4FF0000080F31188BDE809001B
:101AF00019680868B0E8F04F1EF0100F08BFB0EC8E
:101B0000108A80F30988BFF36F8F704700BF00BF52
:101B10007000002000000000000000000000000035
:101B2000074B19680868B0E8F04F80F30988BFF3E5
:101B30006F8F4FF0000080F31188704700BF00BF27
:101B40007000002080B54FF0500080F31188BFF383
:101B50006F8FBFF34F8F01F033FD30B14EF604505D
:101B6000CEF200004FF080510160002080F3118818
:101B700080BD000070B592B006AC20463021FEF763
:101B800001FC002543F640000595CDE90355CDE95C
:101B900001550095C4F202000168022641F080510F
:101BA0000160006800F080500090009847F200004B
:101BB0000095C4F20000016841F4804101600068B2
:101BC000A82100F4804000900098012006904FF476
:101BD000803007904FF480000D9004200E901190FB
:101BE00020460C96CDE90F16FEF78CFF10B172B6A9
:101BF000FEE700BF0F20CDE901064FF4A05004908E
:101C00004FF48050059001A805210395FEF74AFE88
:101C100010B172B6FEE700BF12B070BD4EF688502C
:101C2000CEF20000016841F47001016070470000CD
:101C300040F24410C2F20000FFF7C6B910B540F6FA
:101C4000FF3E0368C4F2000E40F2004C7045C4F23F
:101C5000010C25DCB0F1804F2FD040F20042C4F2DD
:101C60000002904229D040F60002C4F200029042E5
:101C700023D041F6FF72C4F20002904227DC704587
:101C80003ADCB0F1804F5BD040F20042C4F2000277
:101C9000904255D040F60002C4F200024EE000BF70
:101CA00040F60042C4F20002904206D0604504D0E3
:101CB0000022C4F201029042DBD14A6823F0700393
:101CC000134341F6FF72C4F200029042D7DD43F69F
:101CD000FF72C4F20102904220DC42F20002C4F220
:101CE000000290422CD00022C4F20102904227D080
:101CF000604525D028E000BF40F60042C4F2000253
:101D000090421DD041F60002C4F20002904217D06A
:101D100041F60042C4F2000210E000BF44F20002AB
:101D2000C4F2010290420BD044F60002C4F2010258
:101D3000904205D044F20042C4F20102904203D125
:101D4000CA6823F44073134323F080024B69D1F82F
:101D500000E08C681A430260C46240F48062C0F8FC
:101D600028E0624504BF09690163012141610169FD
:101D7000C90708BF10BD016921F00101016110BD53
:101D80008EB04FF001100D9042F21120ADF83200EC
:101D900040F2D070C1F60A200B900020C4F260001F
:101DA0000A9000F091FD099040F26420C2F2000018
:101DB000002702250DF12C0B0DF1320800F138043B
:101DC0000DF1340A0DF12409012600BF0AA806907E
:101DD0002046012152460423CDE90085CDE902B514
:101DE000CDE90477079600F0FFF948464FF4FA7101
:101DF00000F05CFDEAE70000806B0021C185C18432
:101E0000FFF79CB981B090F84210222921D1836854
:101E10000246B3F5805F09D152F8281F52F8183CEA
:101E2000002B63D003685B680AE000BF52F8281FEC
:101E300013B90369002BF5D003685B6803F07F03D7
:101E40000B70116801311160C18D01390A04C1851F
:101E500002D001B0704700BF0168CA6822F02002BA
:101E6000CA60CA6822F48072CA604A6922F001021C
:101E70004A61202180F8421000214163026B012A4F
:101E80003CD10163016851E8031F026821F0100191
:101E900042E80313DBB1016851E8031F026821F037
:101EA000100142E8031393B1016851E8031F02686F
:101EB00021F0100142E803134BB1016851E8031F00
:101EC000026821F0100142E80313002BDAD1016807
:101ED0000A68D20606D5002200920A680092496874
:101EE00000910099818D01B0FFF726B90268526810
:101EF0006FF35F2221F8022B8162A5E701B0FFF7A3
:101F000073BC0000B0B50446006804F108030ECBB2
:101F10000569194325F440552A4302616269E36962
:101F20001143C268194349F20C639A431143C160DB
:101F30004169A26921F4407141F20043114340F428
:101F40008062C4F201039A42416103D1FEF790FD21
:101F500002E000BFFEF778FDE1694FF69C7563680B
:101F60001922C0F6FF75B1F5004FA0FB02011FD189
:101F70005A00DB0FFEF78EF948F21F51C5F2EB1144
:101F8000A0FB01235A0905F1805302FB0300322311
:101F900003EBC000A0FB01014FF4F87000EA111040
:101FA00000EB0210C1F34211084421688860B0BD03
:101FB0009A009B0FFEF76EF948F21F51C5F2EB1124
:101FC000A0FB01235A0902FB0500322303EB00109A
:101FD000A0FB0101F02000EA511000EB0210C1F358
:101FE0004311084421688860B0BD000010B540F27C
:101FF0008C14C2F200042046FFF7A2F840F26021E0
:10200000C2F2000120460122BDE81040FFF7C2BB2A
:10201000FEE7000003790146427990F806C003F01C
:1020200001000876C3F340004876C3F38000887649
:10203000C3F3C000C876C3F300100877C3F34010A1
:102040004877C3F380108877D809C87702F0010079
:1020500081F82000C2F3400081F82100C2F3800023
:1020600081F82200C2F3C00081F82300C2F30010FF
:1020700081F82400C2F3401081F82500C2F38010DB
:1020800081F82600D00981F82700C8790A8981F8EB
:10209000290010BA4A89000C488510BAD1E90323F7
:1020A000000C888512BA1BBA012081F828C0C1E94A
:1020B0000C23704740F21013C2F200031A78022A70
:1020C0001CD0012A0CD0B2B90978A52913D1B3F9D3
:1020D00002104A1C5A80A522425401200AE000BF87
:1020E00009785A2907D1B3F902104A1C5A805A229A
:1020F0004254022018700020704700BFF0B581B034
:10210000B3F902200D78511C8CB2032C59808554F0
:1021100002D182789A8000E09A8809B2D51D8D425A
:102120004FF0000148D1C57802EB000EC57519705B
:102130005980BEF80410002A91FA91FC42D0031D88
:102140004FF6FF7500214AF2010400BFCEB29E5D3A
:102150000131754084EA5506EF0708BF6E0884EA2E
:102160005605F70708BF750884EA5506EF0708BF4C
:102170006E0884EA5605F70708BF750884EA550615
:10218000EF0708BF6E0884EA5605F70708BF750811
:1021900084EA5506EF0708BF6E0884EA5605F7077C
:1021A00008BF7508CEB2B242D0D8AC450ED19EF869
:1021B0000610FF2910D0002101B0BDE8F04008460C
:1021C000704700BF4FF6FF75AC45F0D0002101B05D
:1021D000BDE8F04008467047FFF71CFF012101B041
:1021E000BDE8F040084670472DE9F04F81B08446C5
:1021F00045F6A520DDF82CA0ACF80000D81DDDF8D0
:1022000044B00F9FDDF8348000EB50740AEBE40516
:102210000BEB070005EB48050CF1040905EB80000A
:102220008CF80310012B49468CF80200C0F21B8188
:102230004FEAE40BBBF1010FD8BF4FF0010B092BA4
:1022400008D2002449465FEACB75DDF844B040F07F
:10225000DB8008E16FF0080101EACB0100250024D2
:1022600007E000BF1035A94204F10204777000F0C6
:10227000C3809D4205F10106B4BF575D00279E4211
:102280003EDBAE1C9E4244DBEE1C9E424ADB2E1D12
:102290009E4250DB6E1D9E4256DBAE1D9E425CDBB5
:1022A000EE1D9E4205DA5619F679002E18BF67F02A
:1022B0007F0709EB040605F1080E37709E45BABF8B
:1022C00057193F7A002705F10900984250DB05F1C4
:1022D0000A00984256DB05F10B0098425CDB05F1E1
:1022E0000C00984262DB05F10D00984268DB05F1B5
:1022F0000E0098426EDB05F10F009842B2DA74E0EE
:1023000056197678002E18BF47F00207AE1C9E4281
:10231000BADA5619B678002E18BF47F00407EE1C3B
:102320009E42B4DA5619F678002E18BF47F0080717
:102330002E1D9E42AEDA56193679002E18BF47F090
:1023400010076E1D9E42A8DA56197679002E18BF26
:1023500047F02007AE1D9E42A2DA5619B679002E2C
:1023600018BF47F04007EE1D9E429CDBA1E700BF6F
:102370005019407A002818BF47F0020705F10A00FB
:102380009842A8DA5019807A002818BF47F004074D
:1023900005F10B009842A2DA5019C07A002818BF44
:1023A00047F0080705F10C0098429CDA5019007BB1
:1023B000002818BF47F0100705F10D00984296DA83
:1023C0005019407B002818BF47F0200705F10E0088
:1023D000984290DA5019807B002818BF47F04007D8
:1023E00005F10F009842BFF63DAF5019C07B0028A1
:1023F00018BF67F07F0735E70F9F09EB04015FEA1D
:10240000CB75DDF844B02ED0E500B3EBC40F45F03A
:102410000106CCBF545D00249E42C0F2AB8045F063
:1024200002069E42C0F2B08045F003069E42C0F212
:10243000B58045F004069E42C0F2BA8045F005061C
:102440009E42C0F2BF8045F006069E42C0F2C480A4
:1024500045F007059D4204DA525D002A18BF64F07A
:102460007F0401F8014BBAF1010F39DBDDF828E0F8
:10247000BAF1040F0AF0030302D20024E3B92FE0FB
:10248000504647F6FC74C246B84600EA04050EF111
:1024900001060024301910F8017C0A190F55375D28
:1024A000043457704778A54297708078D070F1D186
:1024B00021444746D0469BB11EF804000D46012B2F
:1024C00005F8010B04D12946B8F1010F0CDA9CE0A4
:1024D0000EEB04025078022B487040F089800231E4
:1024E000B8F1010FC0F291800C9BB8F1040F08F015
:1024F000030E05D20024BEF1000F25D185E000BFF8
:102500004FF6F870BA4600EA48060025002400BFDE
:10251000581947784A194F555F5D08355770C77885
:10252000AE429770877804F10404D7704779177129
:1025300007795771C77997718079D071E8D12944AB
:102540005746BEF1000F60D003EB44056878BEF13A
:10255000010F087013F81400487001D1023154E0E3
:10256000E878BEF1020F8870A878C87048D10431AD
:102570004BE000BF965D002E18BF44F0020445F00A
:1025800002069E42BFF650AF965D002E18BF44F083
:10259000040445F003069E42BFF64BAF965D002E45
:1025A00018BF44F0080445F004069E42BFF646AF4B
:1025B000965D002E18BF44F0100445F005069E42BB
:1025C000BFF641AF965D002E18BF44F0200445F0E1
:1025D00006069E42BFF63CAF965D002E18BF44F043
:1025E000400445F007059D42FFF636AF39E700BFCE
:1025F000907888700331B8F1010FBFF675AF04E031
:1026000068790871287948710631012F71DB0E9BBA
:10261000042F07F0030203D20025002A46D168E008
:1026200047F6FC703840A3F110044642002500BF75
:10263000E07C043D01F8100B608AAE4201F80F0CFB
:1026400054F8100F4FEA102001F80E0C206801F822
:102650000D0CE07901F80C0CE08801F80B0C6068B7
:102660004FEA102001F80A0C606801F8090CE07AC2
:1026700001F8080C608901F8070CA0684FEA1020E7
:1026800001F8060CA06801F8050CE07B01F8040CC9
:10269000E08901F8030CE0684FEA102001F8020C11
:1026A000E06801F8010CC3D16D4212B303EB85045D
:1026B000E078012A08706088487053F825004FEAD6
:1026C0001020887053F82500C87005D10431BBF183
:1026D000010F11DA83E000BFE079022A0871E08877
:1026E000487160684FEA102088716068C8715FD1D6
:1026F0000831BBF1010F72DB109BBBF1040F0BF033
:10270000030805D20027B8F1000F33D167E000BFFE
:102710004FF6F070C0F2010000EA8B05002600279A
:102720009C19E0788A198855A07804375070607831
:102730009070985D1036D070E079B5421071A07934
:102740005071607990712079D071E07A1072A07A1E
:102750005072607A9072207AD072E07B1073A07B06
:102760005073607B9073207BD073D9D13144B8F122
:10277000000F34D003EB8706F078B8F1010F087032
:10278000B07848707078887013F82700C87001D14D
:10279000043124E0F079B8F1020F0871B079487182
:1027A000707988713079C87110D1083117E000BF95
:1027B000E07A087260894872A068000A8872A0688E
:1027C000C8720C31BBF1010F96DA08E0F07A08729A
:1027D000B07A4872707A8872307AC8720C31A1EB84
:1027E0000C02151F28044FF0FF0E39D04FF6FF746E
:1027F00000274AF20106ADB2F8B219F8000001371D
:10280000604086EA5004C30708BF440886EA5400C3
:10281000E30708BF600886EA5003C40708BF4308FF
:1028200086EA5300DC0708BF580886EA5003C4074D
:1028300008BF430886EA5300DC0708BF580886EA49
:102840005003C40708BF4308D80786EA5304F8B208
:1028500008BF5C088542CFD8E0B2C4F3072701E087
:10286000FF20FF274870D01C82B240F28C100F70FE
:1028700081F802E0C2F2000061464FF0FF33FEF73C
:10288000D3FF012001B0BDE8F08F0000FDF724FF69
:10289000FFF770F9FFF7BEF8FFF7E2F800F0C4FAAF
:1028A000FFF790F800F00AF8FEE7000080B5012974
:1028B00098BF012100F02EFC002080BD80B500F003
:1028C00099FC002080BD0000EFF30580002808BFC0
:1028D00000F066BE00F06ABEB0B584B043698E46B3
:1028E00093B1846984B10589D0E9001C026928B2DA
:1028F000843D18BFC51CCDE9005360467346029461
:1029000000F012FE04B0B0BD0589D0E90013028AC0
:1029100028B2843D18BFC51C03AC18467346CDE9E8
:10292000005400F0D1FD0399012818BF002108468A
:1029300004B0B0BD2DE9F041044600F0FBFA40F2CE
:102940007006C2F20006306940F2D41501303061E1
:102950003068C2F2000548B17069002840D1306883
:10296000E16AC06A884298BF346039E034603069F7
:10297000012835D1284600F083FA05F1140000F053
:102980007FFA05F1280000F07BFA05F13C0000F029
:1029900077FA05F1500000F073FA05F1640000F0D9
:1029A0006FFA05F1780000F06BFA40F21818C2F2E5
:1029B0000008404600F064FA08F11407384600F0B9
:1029C0005FFA06F1640000F05BFA06F13C0000F0EB
:1029D00057FA06F1500000F053FAC6F830807763DA
:1029E0007068B16801220131B160E16A8A40104328
:1029F000706001EB810005EB8000211D00F082FA80
:102A000000F0BCFA706988B13068E16AC06A884237
:102A100028BFBDE8F0814EF60450CEF200004FF022
:102A200080510160BFF34F8FBFF36F8FBDE8F0811E
:102A300040F2700540F2D4164EF60458C2F200057A
:102A4000C2F20006CEF200084FF0805703E000BF4C
:102A5000204600F0ABFAE868D0B100F06BFAA86C41
:102A6000C468201D00F0ECF9286901382861E86885
:102A70000138E86000F082FA94F851000228EAD0A8
:102A80000128E5D070B9206B00F090FAE0E700BFB4
:102A900030680228DFD3C8F80070BFF34F8FBFF350
:102AA0006F8FD8E74FF0500080F31188BFF36F8F1E
:102AB000BFF34F8FFEE700002DE9F047DDE90987FE
:102AC0008246386B089C00EB820004389946002946
:102AD00020F0070644D0087887F83400D8B3487847
:102AE00087F83500B8B3887887F8360098B3C87887
:102AF00087F8370078B3087987F8380058B34879F1
:102B000087F8390038B3887987F83A0018B3C8795C
:102B100087F83B00F8B1087A87F83C00D8B1487ACA
:102B200087F83D00B8B1887A87F83E0098B1C87A36
:102B300087F83F0078B1087B87F8400058B1487BA0
:102B400087F8410038B1887B87F8420000281CBF15
:102B5000C87B87F84300002087F8430003E000BFEC
:102B6000002087F834000025381D062C28BF0624D5
:102B7000FC62C7E9114500F08FF907F1180000F079
:102B80008BF984F00700B861304651464A463F61F0
:102B90007F62FD6487F8505000F034F9B8F1000FFF
:102BA000386018BFC8F80070BDE8F08708480068B2
:102BB000006880F308884FF0000080F3148862B644
:102BC00061B6BFF34F8FBFF36F8F00DF00BF000010
:102BD00008ED00E081B00020009040F20C00C2F24D
:102BE000000000684FF0500181F31188BFF36F8F30
:102BF000BFF34F8F013007D0FEE700BF009830B918
:102C0000009820B9009810B900980028F6D001B0BB
:102C10007047000070B5044600F052FB40F2E80C2B
:102C2000C2F2000CDCF8042052B19CF8000000282D
:102C300018BF4FF000404FF0000544BB81E000BFDB
:102C400040F20C30C2F20000420700F5705200F171
:102C5000070122F0070218BF21F007000021A2F1AE
:102C60000803CCE90601CCF8043042E90211DCF893
:102C70000420191AC0E9002101208CF800004FF04F
:102C80000040CCE90211002C4FF0000559D0204043
:102C900057D124F0070000F11003600708BF04F1CA
:102CA0000803DCF80800591E81424AD2604650F8F9
:102CB00018EFDEF804509D422BD2DEF80010B9B1B7
:102CC00074464D689D4217D20E68AEB175689D423C
:102CD00016D23068A0B145689D4215D204689CB1F7
:102CE00065689D4214D22168A6460029E9D110E00A
:102CF0000CF118000DE000BF8E46204609E000BF31
:102D0000B646084605E000BF8646304601E000BFF3
:102D1000A646964514D00268DEF80040E91A11294B
:102D200004604DD30EEB0305680719D04FF0500037
:102D300080F31188BFF36F8FBFF34F8FFEE700BFA3
:102D4000002500F0C1FC68075AD04FF0500080F316
:102D50001188BFF36F8FBFF34F8F00BFFEE700BF37
:102D60000CF118006960CEF8043000BF0168A94278
:102D70000AD20868A8420BD20168A94204D20868A6
:102D80000B46A842F2D304E00346084601E000BF28
:102D90000B465C6869681E19AE4202D121441D468B
:102DA00059606C18844207D1DCF80440A04203D07B
:102DB000D0E9000421446960AB42286018BF1D605F
:102DC000DEF80400DCE9021302F10805091A994251
:102DD000CCF8081038BFCCF80C109CF80010002973
:102DE0004FF0000118BF40F00040CEE90010DCF8C1
:102DF00010000130CCF8100000F066FC6807A4D188
:102E0000284670BD034642F6D53021F00101C0F6D8
:102E100000004FF0807C03E903106FF00201A3F182
:102E2000440043E90912704740F28C1040F26021DF
:102E3000C2F20000C2F200010122FEF7ABBC0000AA
:102E40000169D0E90132D1F804C09A608445536029
:102E500008BF4A60002202610868013808600868FB
:102E60007047000044F21013C2F20003036043F6FF
:102E70001070C2F2000008608020106070470000EF
:102E80004FF0FF31024642F8081F00214260C0E9BE
:102E900003220160704700000021016170470000BB
:102EA00010B5D1F800C01CF1010213D000F10804E4
:102EB00062681368634511D853681C68644511D86B
:102EC0005A68146864450FD854682368A646634559
:102ED000EED90BE00269D2F804E007E096462246FC
:102EE00004E000BF9E4601E096461A46C1F804E0A1
:102EF000CEF808108A6051600861016801310160F4
:102F000010BD0000D0F800C0436808619A68C1E9AC
:102F10000132516099600CF10101016070470000BD
:102F2000DFF80C00016841F4700101607047000097
:102F300088ED00E04FF0500080F31188BFF36F8FF1
:102F4000BFF34F8F40F20C00C2F2000001684A1C30
:102F5000026009B1704700BF4EF60450CEF2000087
:102F60000068000608BF70474FF0500080F31188DA
:102F7000BFF36F8FBFF34F8FFEE7000040F20C00EE
:102F8000C2F20000016839B10139016018BF704711
:102F9000002080F3118870474FF0500080F31188B3
:102FA000BFF36F8FBFF34F8FFEE7000070B50028AF
:102FB00008BF70BD40F2E804C2F20004217850F866
:102FC000042C002918BF4FF0004111420ED0A0F18F
:102FD00008052B68A3B14FF0500080F31188BFF3B0
:102FE0006F8FBFF34F8F00BFFEE700BF4FF0500061
:102FF00080F31188BFF36F8FBFF34F8FFEE700BFE1
:1030000022EA010140F8041C064600F059F956F87E
:10301000041CA0680844A06004F118000368AB42D7
:103020000AD21868A84225D20368AB4204D21868B5
:103030001A46A842F2D301E0024618465368D61851
:10304000AE4202D11944154651606B18834206D135
:103050006368984203D0D0E9000319446960AA422A
:10306000286018BF1560606901306061BDE870407C
:1030700000F02ABB1A465368D618AE42E5D1E1E704
:103080004EF21000CEF2000000210160816040F29B
:103090000801C2F20001096844F6D352C1F262028B
:1030A000A1FB02124FF0FF3101EB921141600721A9
:1030B0000160704740F20810EFF305811029C2F259
:1030C000000011D34EF2F032CEF20002895C027899
:1030D000914209D24FF0500080F31188BFF36F8FF7
:1030E000BFF34F8FFEE700BF4EF60C51CEF200014A
:1030F0000968406801F4E061814298BF70474FF071
:10310000500080F31188BFF36F8FBFF34F8F00BF64
:10311000FEE7000070B588B1D1B140F27004C2F290
:103120000004A269F2B14FF0500080F31188BFF3A0
:103130006F8FBFF34F8F00BFFEE700BF4FF050000F
:1031400080F31188BFF36F8FBFF34F8FFEE700BF8F
:103150004FF0500080F31188BFF36F8FBFF34F8F94
:10316000FEE700BFA2690132A261E26903689A42E8
:10317000194403D2994203D320E000BF994201D3FE
:1031800091421BD90160E56920688E1A0430FFF76F
:1031900057FE40B920680121C06A626801FA00F058
:1031A00022EA000060602068AD19456008D3606BBA
:1031B00021680431FFF774FE0BE000BF016008E0F6
:1031C000206B21680431FFF76BFE606A854238BFCF
:1031D000656200F079FA002818BF70BD4EF6045001
:1031E000CEF200004FF080510160BFF34F8FBFF36C
:1031F0006F8F70BDB0B588B00020CDE9050006A87E
:1032000005A904AAFFF72EFE0598B8B3069C002C6A
:103210003ED05421049A07910799542942D1079925
:103220002063022084F8510007A80025CDE9005052
:1032300042F63120C0F600001FA100230294FFF7E0
:103240003BFC2046FFF776FB079940F27000C2F284
:103250000000016279B14FF0500181F31188BFF392
:103260006F8FBFF34F8F4FF0FF31416201214161FA
:10327000C56100F065F808B0B0BD00BF4FF0500068
:1032800080F31188BFF36F8FBFF34F8FFEE700BF4E
:103290004FF0500080F31188BFF36F8FBFF34F8F53
:1032A000FEE700BF4FF0500080F31188BFF36F8F2F
:1032B000BFF34F8FFEE700BF49444C4500000000BC
:1032C00040F27000C2F200008169013181617047F3
:1032D00040F27000C2F20000816900291EBF012186
:1032E00081627047002181624168B1FA81F1C9B2FF
:1032F000C1F11F0140F2D41201EB8101C2F20002C0
:1033000052F8213063B102EB8102516802F10803E7
:103310004968994251600DD0C9680160704700BF8B
:103320004FF0500080F31188BFF36F8FBFF34F8FC2
:10333000FEE700BF49685160C9680160704700003E
:10334000B0B584B04EF2004CCEF2000C4CF27021BD
:10335000C4F20F11DCF800294B1C9A420AD14FF03D
:10336000500080F31188BFF36F8FBFF34F8F00BF02
:10337000FEE700BFDCF800298A4209D14FF0500077
:1033800080F31188BFF36F8FBFF34F8FFEE700BF4D
:103390009CF800100291FF218CF800109CF800109E
:1033A0008DF807109DF8071001F0500240F2081147
:1033B000C2F200010A7007224A609DF90720B2F1AB
:1033C000FF3F6BDC032200BFD31C4B609DF807005E
:1033D00040008DF807009DF90700B0F1FF3F24DCA5
:1033E000931C4B609DF8070040008DF807009DF985
:1033F0000700B0F1FF3F18DC531C4B609DF807003D
:1034000040008DF807009DF90700B0F1FF3F0CDC8C
:103410004A609DF80700043A40008DF807009DF9C6
:103420000700B0F1FF3FCFDD131D032B36D14FF462
:103430004070486002988CF80000DCF8200940F4E5
:103440007000CCF82009DCF8200940F07040CCF87E
:103450002009FFF715FE40F20C04C2F2000400251B
:103460002560FFF75DFD4EF63470CEF20000016876
:1034700041F040410160FFF799FBFFF729FF0395F9
:1034800020684FF0500181F31188BFF36F8FBFF3B5
:103490004F8F013012D000BFFEE700BF4FF0500049
:1034A00080F31188BFF36F8FBFF34F8FFEE700BF2C
:1034B000039830B9039820B9039810B903980028ED
:1034C000F6D0002004B0B0BD2DE9F04184B007462D
:1034D0009000984615460E46FFF79CFBF8B104464F
:1034E0005420FFF797FBB8B1DDE90A2100230463FC
:1034F00080F85130CDE900210446384631462A464D
:1035000043460294FFF7D8FA2046FFF713FA01204A
:1035100004B0BDE8F08100BF2046FFF747FD4FF043
:10352000FF3004B0BDE8F08170B586B00B9CCCB123
:103530000C9E0EB354250495049D542D26D1049D54
:10354000DDF828C0022586F8515005AD3463CDE979
:1035500000C50296FFF7B0FA3046FFF7EBF9059881
:1035600006B070BD4FF0500080F31188BFF36F8F2D
:10357000BFF34F8FFEE700BF4FF0500080F311887C
:10358000BFF36F8FBFF34F8FFEE700BF4FF05000C8
:1035900080F31188BFF36F8FBFF34F8FFEE70000FA
:1035A00040F27000C2F20000C069704780B5FFF7BA
:1035B00081FD40F27000C2F20000C06980BD0000D1
:1035C0002DE9F04740F27006C2F20006B06928B15A
:1035D000F06A0130F0620020BDE8F087F06910F178
:1035E000010AC6F81CA020D3306B006850B14FF020
:1035F000500080F31188BFF36F8FBFF34F8F00BF70
:10360000FEE700BF306B716B31637063B06B0130EC
:10361000B063306B006828B1306BC068C068406828
:1036200002E000BF4FF0FF307062706A40F2D418C1
:103630008245C2F2000801D2002434E0306B00243D
:10364000006868B34FF0010916E000BFF86A7168BE
:1036500009FA00F2114300EB8000716008EB800072
:103660002946FFF74FFCF86A3168C96A326B884215
:10367000106828BF4C4698B1306BC068C7683D469B
:1036800055F8040F82450DD32846FFF7D9FBB86AD9
:103690000028DBD007F11800FFF7D2FBD6E700BF08
:1036A0004FF0FF3070623068C06A00EB800058F85D
:1036B0002000012888BF0124B06A002818BF012417
:1036C0002046BDE8F08700002DE9F04140F270058A
:1036D000C2F20005A86968B1FFF72CFCA86901389F
:1036E000A861A86980B10024FFF748FC2046BDE826
:1036F000F08100BF4FF0500080F31188BFF36F8F4F
:10370000BFF34F8FFEE700BF28690028EBD0686E3B
:1037100078B340F2D4180126C2F20008286FC768B7
:1037200007F11800FFF78CFB3C1D2046FFF788FBD4
:10373000F86A696806FA00F2114300EB80006960DC
:1037400008EB80002146FFF7DDFBF86A2968C96AAB
:10375000884228BFAE62686E0028DFD1286B0068FF
:1037600020B1286BC068C068406801E04FF0FF30AE
:103770006862EC6A4CB10126FFF722FF002818BFEF
:10378000AE62013CF8D10020E862A86A0028AAD005
:103790004EF60450CEF200004FF080510160BFF3AE
:1037A0004F8F0124BFF36F8FFFF7E8FB2046BDE882
:1037B000F081F1EE100A4FF6FF71C0F2C03120EA3D
:1037C000010040F04070E1EE100A70470000000078
:1037D00000000000010203040607080900000000C1
:1037E000010203045472616E736D69745F54415336
:1037F0004B000000183800080000002010000000F6
:10380000EC0100082838000810000020584700008C
:103810000C02000800000000010000001000000081
:083820000024F400AAAAAAAAE0
:040000050800018965
:00000001FF
